S0170000656B72613870315F6C63645F63616D2E737265636F
S3150200000020C100227D660002556400027966000264
S315020000107966000279660002796600027966000254
S3150200002000000000000000000000000079660002E7
S315020000307966000200000000796600027966000215
S31502000040E157000265580002C158000265400002ED
S31502000050F94100021D43000201440002E52A0002A2
S31502000060ED2A00022D3600028536000221370002F3
S3150200007079370002D137000229270002E12B00025C
S31502000080392B0002712C0002BD2C000265400002D1
S31502000090F94100021D43000201440002FD5C000218
S30D020000A0A5460002A546000276
S315020000A80000000000000000180000220000000006
S315020000B8000000000000000070320122010000006A
S315020000C80000070000001888000000000000000079
S315020000D801004000010100000000000001030000C9
S315020000E891A10002090000000008000000000000BB
S315020000F8000000000100000081A7000207000000BE
S3150200010800100000000000000000000001030000CB
S3150200011889AB000202000000004000000000000057
S31502000128000000000100000021AD000209000000E5
S3150200013800080000000000000000000001000000A6
S3150200014835AE0002050000000008000000000000AD
S315020001580000000001000000E1AE00020C000000F1
S315020001680040000000000000CC0000220000000051
S3150200017864400122CC4001223441012200000000E1
S31502000188000000000000000000000000000000005F
S31502000198000000000000000000000000000000004F
S315020001A8000000000000000000000000000000003F
S30D020001B8000000000000000037
S315020001C00348044B834202D0034B03B118477047DE
S315020001D0180100221801002200000000064B074900
S315020001E0C91A891048BF0131491003D0044B0BB11B
S315020001F001481847704700BF180100221801002263
S315020002000000000010B5064C237843B9FFF7D8FF6B
S31502000210044B13B10448AFF300800123237010BDD1
S3150200022028E5002200000000A800000208B5054BE0
S315020002301BB105490548AFF30080BDE80840FFF74A
S31502000240CDBF00BF000000002CE50022A80000027E
S315020002502DE9F04F444E9DB037460DF15C0EF14646
S315020002604FF00408CDE90A020D910C930FCFAEE8C8
S315020002700F003F680FAC13AD06F1240BCEF80070E9
S3150200028006F1140A0DF1140C9AE80F0084E80F0027
S315020002909BE80F0085E80F00B9E80F00ACE80F00F5
S315020002A0CCF80070314F0D980A990097CDE90358A2
S315020002B0CDE901482E4B2F4A00F00AF90DF15C0EEA
S315020002C0F24606F13409B9E80F00AEE80F009BE8E2
S315020002D00F00D9F8009006F14807CEF800900DF10C
S315020002E0140C84E80F0097E80F0085E80F00BAE8BF
S315020002F00F00ACE80F002048CCF800900C99009053
S31502000300CDE903580A98CDE901481C4B1C4A00F076
S31502000310DFF80DF15C0EF24658360FCEAEE80F004E
S315020003209BE80F0036680DF1140CCEF8006084E8E5
S315020003300F0097E80F0085E80F00BAE80F00ACE857
S315020003400F00DFF84890CCF800600E4BCDE9035859
S31502000350DDE90A01CDE901480B4ACDF8009000F02B
S31502000360B7F81DB0BDE8F08FE0B20002B0B20002ED
S31502000370C0B20002D0B2000280B2000290B2000205
S31502000380A0B2000260B2000270B2000250B20002D5
S315020003902DE9F04F444E9DB037460DF15C0EF14605
S315020003A04FF00408CDE90A020D910C930FCFAEE887
S315020003B00F003F680FAC13AD06F1240BCEF80070A8
S315020003C006F1140A0DF1140C9AE80F0084E80F00E6
S315020003D09BE80F0085E80F00B9E80F00ACE80F00B4
S315020003E0CCF80070314F0D980A990097CDE9035861
S315020003F0CDE901482E4B2F4A00F06AF80DF15C0E4A
S31502000400F24606F13409B9E80F00AEE80F009BE8A0
S315020004100F00D9F8009006F14807CEF800900DF1CA
S31502000420140C84E80F0097E80F0085E80F00BAE87D
S315020004300F00ACE80F002048CCF800900C99009011
S31502000440CDE903580A98CDE901481C4B1C4A00F035
S315020004503FF80DF15C0EF24658360FCEAEE80F00AD
S315020004609BE80F0036680DF1140CCEF8006084E8A4
S315020004700F0097E80F0085E80F00BAE80F00ACE816
S315020004800F00DFF84890CCF800600E4BCDE9035818
S31502000490DDE90A01CDE901480B4ACDF8009000F0EA
S315020004A017F81DB0BDE8F08FE0B30002B0B300024A
S315020004B0C0B30002D0B3000280B3000290B30002C0
S315020004C0A0B3000260B3000270B3000250B3000290
S315020004D02DE9F04FB5B06C4694469E464FF0000BA0
S315020004E0409F43AD05970B9106460FCD0FC42B686F
S315020004F07246236061463E9B1FA800F025F93946E5
S3150200050005233F9815AA8DF8CEB000F0F7F8DDE97D
S31502000510410105231AAA00F0F1F8394605221FA85F
S3150200052000F04EF95A4615A91FA800F0ABF9074686
S315020005305A463B4615A91FA800F0D6F901220546E0
S3150200054015A91FA800F09EF9814601224B4615A95E
S315020005501FA800F0C9F90222109015A91FA800F0E1
S3150200056091F902220346119015A91FA800F0BCF9C1
S3150200057003220E9015A91FA800F084F982460322D1
S31502000580534615A91FA800F0AFF90422089015A931
S315020005901FA800F077F904460422234615A90C90F9
S315020005A01FA800F0A1F94B46B9462F46309A07908C
S315020005B00992041B4A4638462C991D4600F0B8F8A3
S315020005C0002800F09880A8462D9942461098CDE959
S315020005D01275CDF83CA000F0ABF800287ED0119F32
S315020005E00B9B3A46C3F101032E990E980D9300F028
S315020005F09FF800286AD00F9D2F9924E0002C20DD59
S31502000600DDE91632DDE9181003FB09F302FB03F3F9
S3150200061008FB02F201FB03F301FB02F207FB01FCFA
S315020006200C9905FB001100FB0C1100FB021100FBEB
S3150200063003110B9B224603EB0B0031440AF058FDD3
S31502000640A3442F990D442A46089800F071F8002811
S3150200065034D0099B012BD1D00B9B0BF1FF3BDDF86C
S3150200066030A030999B440A941CE0169B199C03FB0C
S3150200067009F3DDE9170C08FB00F200FB03F307FBA5
S315020006800CFE05FB04100CFB02F20CFB03F304FB4D
S315020006900E0004FB03F304FB02003099C3568A449E
S315020006A00BF8013F5246079800F042F806EB0A01A2
S315020006B00028DAD10D9B0A9C9B44C2E72E990E981C
S315020006C00F443A4600F034F8002894D12D99109838
S315020006D08844424600F02CF8002880D1DDE91275E4
S315020006E02C99384689444A46DDF83CA000F020F8A9
S315020006F000287FF468AF35B0BDE8F08F002BA3EB7E
S31502000700010114DD4FF0000C00B5C1EB817E043A05
S3150200071000EB8E0E6145CCBF01205EF82C00013B3A
S3150200072042F8040F0CF1010CF4D15DF804FB70479A
S31502000730002904DB8242ACBF0020012070478242BE
S31502000740D4BF0020012070472DE9F04397B0239CC7
S315020007500546884691460021542201A81F460AF002
S3150200076089FC002C66B20FDDA4004146224602A88F
S315020007700AF0BEFC2246494608A80AF0B9FC2246FF
S3150200078039460EA80AF0B4FCBDF87C00BDF87840E4
S31502000790BDF88830ADF850005422284601A98DF8DC
S315020007A004608DF81C608DF83460ADF84C40ADF8ED
S315020007B054300AF09DFC284617B0BDE8F08300BF0E
S315020007C0F8B590F900300446002B1646A2EB030555
S315020007D018DD4FEA830EAEF1040E4FEA9E0E0EF1BD
S315020007E0010E4EF001E0591900EB810100EB830383
S315020007F01A6B0A6353F8042941F80429DA69CA61B3
S315020008000FF00BC0002D14DDAF0000213A46201D6B
S315020008100AF030FC0121A7F1040E4FEA9E0E8E4427
S315020008204EF001E004F1180343F8041F99610FF03A
S3150200083005C8002101230846B4F85020AB40AA405F
S31502000840A4F85020B4F84820013BB4F84C709BB28F
S31502000850AA4076B21A4362F30F012670B4F84E200C
S31502000860267684F83060AF40B4F84A603B43AE4027
S31502000870AA4063F30F0066F31F4162F31F40A164AF
S31502000880E064F8BD012310B400EB820CDCF80440EE
S31502000890B0F848009340002C03EA000351F8220006
S315020008A0DCF8342009DB002A0ADDA04212DA002B2A
S315020008B018BF00205DF8044B7047002A044409DC87
S315020008C00138A042F6DB002BF4D144EAE4705DF86D
S315020008D0044B70471BB100205DF8044B704724EAB5
S315020008E0E4705DF8044B7047844610B54FF0010E74
S315020008F0BCF850400EFA02FE14EA0E0F51F822001E
S3150200090003D0984253EAD39010BD91006144C9695D
S315020009109CF852400B44002C18BF1946BCF84C30C8
S315020009200CEB82020029526B03EA0E0308DB002A53
S3150200093009DD8142E8DC002BE6D121EAE17010BD37
S31502000940002A0144F7DC0138884203DB3BB941EA5D
S31502000950E17010BD002B18BF4FF0FF3010BD4FF0F5
S31502000960FF3010BD0048704700990468024B0348E7
S315020009701B681844704700BFA01C010200E5066808
S315020009802DE9F0474FF4134506461B4FDFF88C80DE
S315020009901A4CDFF88C90DFF88CA03B464246214683
S315020009A01748FFF755FC4B46524621461548FFF7B6
S315020009B0EFFC154B154C186851462A4620440AF09E
S315020009C097FB134B494618682A4620440AF090FBC7
S315020009D0104B414618682A4620440AF089FB0E4B02
S315020009E02A461868394620440AF082FB3046BDE89A
S315020009F0F04700F019B800BF007303680099046855
S31502000A008026016800000068AC1C010200E5066849
S31502000A10A41C0102B01C0102A81C01020006046803
S31502000A20004D026800E002684FF4134270B54FF4BD
S31502000A30442100241F4D9CB02D681F4B04951F4D69
S31502000A401F4E129503F5933514959D180C960E9329
S31502000A501093169518930D940F940591119406917F
S31502000A6013940792159408921794099219940A926C
S31502000A70C0B9002608251349134A1A9304AB0093FA
S31502000A800B91CDE90156126810490CAB10481B9424
S31502000A9001F0C4FDA0F1FF30B0FA80F040094042F7
S31502000AA01CB070BD18462146064A0AF0E3FA034610
S31502000AB0DFE700BF9C1C010200E50668009E08688D
S31502000AC000216568A9550100981C010250B4000274
S31502000AD0703201222DE9F0410446D0E902854068D0
S31502000AE0A8EB050797422844154408D80E463A460D
S31502000AF0A5EB08050AF0FCFA2A466068F1190AF025
S31502000B00F7FABFF35F8FE560BDE8F0812DE9F843A0
S31502000B104FF00009064688461746D0E90224336993
S31502000B20151B9C4203F1FF3125BF03F1FF339B18CE
S31502000B300B1B1B1BBD4228BF3D469D4228BF1D46BF
S31502000B40706841462A4620440AF0D2FAB2682C441A
S31502000B50A24208BF0024A944A8447F1BBFF35F8FAB
S31502000B60F460002FDBD14846BDE8F883F8B5154C92
S31502000B70A822002120460AF07DFA4FF400660023DF
S31502000B80032010221049114F114D20616061A161AD
S31502000B90E7612662A3626362E36221666566A26614
S31502000BA02367E3666367BFF35F8F0A4B42F001E098
S31502000BB01846C21A13F9011DA1540FF007C0BFF35C
S31502000BC05F8FF8BD58ED0022B41C010258E50022E1
S31502000BD048E50022382A010270B51D4D441C00EB7F
S31502000BE0400005EBC00304EB440405EBC400DC6AD9
S31502000BF08C46012C164612D0022C0CD0FCB99A6AED
S31502000C00596A8A429CBF1B6AD218013A511A8E420D
S31502000C1018D9204670BDBDE87040FFF777BF9A6AC3
S31502000C205C6AA2429CBF1B6AD218013A141BB442E8
S31502000C3028BF34462246FFF74DFF204670BD0024EA
S31502000C40204670BD32466146FFF744FF3446E0E770
S31502000C5058ED0022F8B50B4B04461B780D46532B74
S31502000C60164601D0FFF782FFEFF311874FF02001FE
S31502000C7081F31188324629462046FFF7ADFF87F3F6
S31502000C801188F8BD58ED002210B50446D0E90132AC
S31502000C90501C984207D8236899540246E168636853
S31502000CA00131C4E902019A4200D010BD21682069CF
S31502000CB0FFF7D0FFA368984215BF4FF0FF3300231A
S31502000CC0E360A36010BD00BF2DE9F84F91428A464A
S31502000CD0DDE90A84154683461E466AD30B4601277A
S31502000CE0B3FBF5F39D4207F10107F9D9B74238BFC5
S31502000CF0374614F0010902D1B8F1000F40D1DBF8F2
S31502000D000C30002B2CDB0124002E14BF3346234665
S31502000D1001E005FB04F4013BFBD1BAFBF4F39D426F
S31502000D2005D805FB04F4BAFBF4F39D42F9D9224E29
S31502000D3006E0AC42B4FBF5F30CD31C46BAFBF3F364
S31502000D40F156584604FB13AAFFF79EFFDBF80C3058
S31502000D50002BEEDAB9F1000F02D0B8F1000F09D17B
S31502000D60BDE8F88F20215846FFF78EFFDBF80C30DE
S31502000D70002BF5DBB84508F1FF38F3D8BDE8F88F4C
S31502000D80A30711D420240CE021465846FFF77CFF26
S31502000D90DBF80C3008F1FF38002BE1DBB8F1000F6D
S31502000DA0AFD0B845F0D8AAE7002E0CBF30242024D5
S31502000DB0F7E701279AE700BF402A01022DE9F04F23
S31502000DC0002340259BB00DF1280980460C461746A4
S31502000DD0CDE90553CDE90730CDF8109006E004A819
S31502000DE0FFF752FF079B002BC0F2AD8014F9011BDF
S31502000DF0002900F0A0802529F1D10026234613F907
S31502000E00011BA1F123020D2A08D8DFE802F07F07B1
S31502000E100707070707077B0783070777A1F1300252
S31502000E20D2B2092A4FF0000501D90EE0013305EBD3
S31502000E30850501EB450593F900101C46A1F1300228
S31502000E40D2B2092AA5F13005F0D92E297FD0002287
S31502000E50924694F9001021F00403682B04F1010470
S31502000E605CD02529BBD05839CBB2202BBAD8202941
S31502000E70B8D801A353F821F09D0F0002E50D000238
S31502000E80E50D0002E50D0002E50D0002E50D00028A
S31502000E90E50D0002E50D0002E50D0002E50D00027A
S31502000EA0E50D0002B90F000241100002E50D000235
S31502000EB0E50D0002E50D0002E50D0002E50D00025A
S31502000EC0E50D0002E50D0002E50D0002E50D00024A
S31502000ED0E50D0002E50D000223100002E50D0002F9
S31502000EE0E50D0002E70F0002E50D0002CD0F00023C
S31502000EF0E50D0002E50D00029D0F00021C4646F0BC
S31502000F0002067BE71C4646F0040677E71C4646F0D7
S31502000F10080673E71C4646F001066FE714F9011B43
S31502000F2021F00403682B9CD114F9011B21F0040360
S31502000F30682B96D1F2E7079B002B04DD069C002C5A
S31502000F4040F0B280234418461BB0BDE8F08F94F9F6
S31502000F5001102A2909D13B684FF0010A1A1D3A608D
S31502000F6094F902101A68023475E7A1F13003DBB274
S31502000F70092B4FF0000204F1010400F2E18002EBBA
S31502000F80820201EB420214F9011F303AA1F1300349
S31502000F90DBB2092BF3D94FF0010A5CE713461022A4
S31502000FA03968081D386009680DEB0200CDE9005664
S31502000FB0FFF78AFE079B16E73B6804A81A1D3A60EC
S31502000FC093F90010FFF760FE079B0CE7396813469A
S31502000FD0081D386009680A22CDE9005604A8FFF701
S31502000FE073FE079BFFE63B68191D39601D68002DDD
S31502000FF000F08D800132AE1815F9011B00293FF46D
S31502001000F1AEBAF1000F02D0B5423FF4EBAE04A83E
S31502001010FFF73AFE079B002BEEDA18461BB0BDE837
S31502001020F08F3A680823111D3960116800201022DA
S31502001030CDE900300DEB0200FFF746FE079BD2E634
S315020010403B684FF0010A191D3960D3F800B08BEAEC
S31502001050EB73A3EBEB73092B09DD4A481946A0FB98
S3150200106003C363290AF1010A4FEAD303F6DC924568
S3150200107038BF92460DBB079900250B460029FFF69D
S3150200108062AFBBF1000F46DB730752D406F00303CF
S31502001090022B57D0134659460A22CDE9005604A818
S315020010A0FFF712FE079B9EE62246494640460393F9
S315020010B0FFF7D0FD039B234445E7BBF1000F06F083
S315020010C002031BDB710719D4002B53D09AB1F30725
S315020010D00FD510E0202104A80392FFF7D5FD07994A
S315020010E0039A00290B4605F1FF35FFF62CAF002DBA
S315020010F0C4D0AA45EED307990B46BFE7013D0BB113
S31502001100002AF8D0F107F6D4002DF2D1B3E74FF05A
S31502001110000A1D4D6EE72D2104A80392FFF7B4FDC8
S31502001120039ACBF1000B079900290B46FFF60BAF8A
S31502001130ACE72B2104A80392FFF7A6FD039AF2E778
S31502001140924688E6002AA5D1002DA3D0554517D987
S31502001150302104A80392FFF797FD0799013D002964
S315020011600B46FFF6F0AE039A002DEFD10029FFF6EB
S31502001170EAAE8FE7F007BCD5079B002B8ADAE2E6D8
S315020011800B46F3E7CDCCCCCCC01C01020EB400B5A5
S3150200119082B003AB53F8041B01AA0193FFF70EFEBC
S315020011A002B05DF804EB03B0704700BF10B54FF410
S315020011B07A740E4B84B018681122032103AB009493
S315020011C006F0DAFC20B9039BDA0708D504B010BD95
S315020011D010F1320F0CBF1420052004B010BD13F01D
S315020011E0020F14BF1220052004B010BD14400122C4
S315020011F08C4600B5964683B09CFA9CFC00230322DB
S3150200120001A9ADF804C08DF806E002F09BFD10B10D
S3150200121003B05DF804FBFFF7C9FF03B05DF804FBFA
S315020012208C4630B583B015469CFA9CFC01230222FB
S3150200123001A90446ADF804C002F084FD08B103B06A
S3150200124030BDFFF7B3FF0028F9D103460122294634
S31502001250204602F08FFD0028F1D1FFF7A7FFEEE747
S3150200126008B503799A1E012A11D9012B15D0EFF37D
S315020012700383103B0C4A5BB203F5C65352F82310A4
S3150200128021F4803142F8231052F8233008BD074B6F
S315020012900121186806F008FCE9E7044B02211868E8
S315020012A006F002FCE3E700BF0060004014400122A2
S315020012B0024A136801331360704700BF04EE00222E
S315020012C0024A136801331360704700BF00EE002222
S315020012D070B50B4B0B4D9C680B4923682846984703
S315020012E0636828469847094B094D9C682846236837
S315020012F00849984728466368BDE87040184700BF0A
S31502001300742C0102B8320122802C0102982C0102AF
S31502001310C8320122A42C010270B5002484B003A8AD
S31502001320039405F041F89DF80D609DF80E501C4996
S315020013301C4A9DF80F302046CDE90056FFF726FFDE
S3150200134000F096F800F08EFDFFF7C2FF1649174827
S3150200135001F0E8FD90B1024615492046FFF716FF57
S315020013601449154801F072F9024688B11349002062
S31502001370FFF70CFF05F038FC04B070BD1049FFF70B
S3150200138005FF0C490C4801F061F902460028EDD12F
S315020013900C49FFF7FBFE05F027FC04B070BD00BF49
S315020013A0CC1C0102C81C0102682D0102383301223D
S315020013B0E81E0102642C010200000022201F010225
S315020013C0101F0102501F0102022800D0704708B503
S315020013D00449054802F09EFBBDE80840012005F0DD
S315020013E0E3B800BFA02F010228320122012370B503
S315020013F08446002682B01B4D0C461A461A480DF149
S3150200140007018DF807C02E7002F09CFC70B92B788C
S3150200141026464BB90A244FF47A71012004F0D6FF0E
S315020014202B780BB9013CF6D12B780BB902B070BD03
S3150200143000230E4D012231460B482B7002F09AFC16
S315020014400028F3D12B784BB90A244FF47A71012084
S3150200145004F0BCFF2B780BB9013CF6D12B7802B015
S3150200146070BD00BF09EE00226433012208EE00229D
S3150200147008B50849084802F0B3FD20B9BDE808409E
S315020014800649FFF783BE0020BDE808400449FFF77E
S315020014907DBE00BF602E010264330122781F010265
S315020014A0681F01020379022B06D0032B00D0704776
S315020014B00122034B1A7070470122024B1A707047C1
S315020014C009EE002208EE002230B500234FF48074A4
S315020014D083B0204D0222204801A98DF801308DF8F3
S315020014E002308DF803302B70ADF8044002F02AFC6E
S315020014F060B92B784BB90A244FF47A71012004F0B3
S3150200150065FF2B780BB9013CF6D12B78142406E043
S315020015104FF47A71012004F059FF013C08D01420DF
S315020015200DF10101FFF762FF9DF80130DB07EFD5F0
S315020015300DF102011E20FFF759FF1F200DF10301D5
S31502001540FFF754FF9DF802009DF8033043EA00209E
S3150200155003B030BD09EE0022643301222DE9F04FBB
S315020015602DED0A8BDFB0CDE90423002800F0288197
S315020015700E46002900F02481729B002B00F0208188
S31502001580CD4C82462568F0EE40AAB0EE608A002D68
S315020015904CD108202F46DFF848C34FF01C0E634695
S315020015A000224EF001E0F9B21A70597098700132B9
S315020015B003330FF007C81C35B5F5447F07F1010761
S315020015C00CF1540CE9D14FF0000C1020BB4F4FF038
S315020015D00E0E3B4600224EF001E05FFA8CF11A70C5
S315020015E059709870013203330FF007C80E35B5F5FE
S315020015F0757F0CF1010C07F12A07E8D1002520209E
S31502001600AF4F4FF0070E3B4600224EF001E0E9B223
S315020016101A7059709870013203330FF007C80135FA
S31502001620072D07F11507ECD1012323600023DFF80C
S31502001630B0920AF1540801969FEDA2AADFEDA29A92
S315020016401E46B0EE48CAA14FCAF1000A09F60F4B70
S3150200165008E009F10309D94508F15508AAF1550A26
S3150200166000F0A98018F9503C07EE903AF8EEE77AB6
S3150200167077EE8A7A67EEA97AF4EEE7AAF1EE10FA25
S31502001680E7DC4246002512F94F4DAAF1040EA8EBFB
S315020016900201104612F9013FA342C4BF1C460EEBDB
S315020016A000050139F5D107EE104AB8EEC78A38EEC1
S315020016B00A8A28EE298A28EE278AF4EEC8AAF1EECB
S315020016C010FA18F9541C18F9532C18F9520C18F977
S315020016D0514CBEDC07EE901AB8EEE77A07EE902A76
S315020016E0F8EEE77A99F8003005EE900A06EE103A1F
S315020016F099F8013037EE0A7A06EE903A77EE8A7A50
S3150200170099F80230B8EEE50AB8EE466AF8EE666A6D
S315020017100BEE903A27EE297A67EEA97A30EE0A0A9C
S31502001720F8EE6BBA77EEA67A37EE067A20EE290A3B
S3150200173027EE2B9A67EEAB8A09F0E8FC07EE904A91
S31502001740F8EEE77A77EE8A7A20EE2BBA27EEA90A26
S3150200175009F0DCFCB6F5007F60EE2B7A38D2F6EEA5
S31502001760006A67EEA67A2BEE267A38EEE76A79EEFB
S31502001770476A77EEA87A37EE097A06EB460207EB56
S31502001780C20282ED048A55618DED0B6A8DED0C7AEB
S31502001790CDED0A6ACDED0D7A9DED0A7F09F10309B9
S315020017A0D94582ED007F06F1010608F15508AAF136
S315020017B0550A7FF457AF3346B0EE4C8A019E5BB9A9
S315020017C04FF0000B58465FB0BDEC0A8BBDE8F08FB8
S315020017D0B0EE4C8A3346019E0EAC4FF4A072002145
S315020017E02046019309F046FC019B002B18DD03EB12
S315020017F0430E4FEACE0E364AAEF1180E4FEADE0E11
S3150200180002FB0EFE2EF0604E0EF1010E4EF001E0CE
S3150200181001202E4A5169183244F821000FF007C000
S315020018204FF0000B18469FED2B2ADFED2B2A23469D
S315020018305A463146DFF8AC9053F8044B002C00F0C0
S315020018409A81CBF16408B8F1000FBBDD002840F3A2
S3150200185092814FF0000E1D4C0646254677469A4663
S31502001860DFF878C06B6993420AD1D5ED047AF5EEBA
S31502001870C07AF1EE10FAA4BF4CF82E700EF1010EEA
S31502001880013E07F1010705F11805EBD1BEF1010F83
S31502001890534640F38481114D0127AC46CDE9010838
S315020018A003925CF8043FB84603EB430004EBC00026
S315020018B090ED047A60461EE010260122442F012292
S315020018C09031012200001842B13CEE3C10F6002293
S315020018D0ABAAAA0ABD3786350000000010EE002228
S315020018E014260122000080BF40F80469A84208F1CC
S315020018F0FF3800F0458150F8046C06EB460204EB13
S31502001900C202D2ED047AF4EEC77AF1EE10FAEBD403
S315020019100137774545F82830C3D1DDE9010853463A
S31502001920039A4FF0000A5746049DDFF878C2013D3C
S3150200193005EE105A059DCDE90203013D05EE905ACA
S315020019400CEB8E0501955CF8040F013700EB4000A5
S3150200195004EBC000D0ED047AF5EEC07AF1EE10FA8F
S3150200196000F10181D1ED017A90ED003AF8EEE76AD5
S3150200197090ED024AD1ED007A33EE663A34EE664ACB
S3150200198091ED027AB8EE456AC3EE276AB8EEC77AD7
S31502001990D0ED013AD0ED034AF4EEC66A73EEC73AC9
S315020019A074EEC74AF1EE10FA83EEA77AC4EE273A2E
S315020019B084EEA74A40F1F080F5EEC06AF1EE10FA25
S315020019C001D5F0EE626AF8EE657AB4EEE77AF1EEE8
S315020019D010FA40F1DE80B5EEC07AF1EE10FA01D5CA
S315020019E0B0EE627AF4EEC63AF1EE10FA08D5F5EEEA
S315020019F0C03AF1EE10FA54BFB0EE636AB0EE626A14
S31502001A00B4EEE74AF1EE10FA08D5B5EEC04AF1EEA9
S31502001A1010FA54BFF0EE447AF0EE627ACDED066A21
S31502001A208DED077A8DED086ACDED097A9DED067F7B
S31502001A30729D0AEB0B0303EB430305EBC30383ED32
S31502001A40007F0569BE450AF1010A5A611D6140F32C
S31502001A508F80019B6646A3EB0C05043DAD0801355C
S31502001A602CE0B5EEC06AF1EE10FAF0EE621A1CD462
S31502001A70B0EE627A27EE067AB5EE407AF1EE10FA09
S31502001A806ED077EEC37A31EE636A76EEC46A70EE92
S31502001A90E44A67EE867A66EEA46A77EEA67A77EE6F
S31502001AA0C77A77EE827AC7EE271AB4EEE18AF1EEAA
S31502001AB010FA48BFC3F81090013D56D056F8043FBD
S31502001AC003EB430304EBC303D3ED047AF5EEC07ACA
S31502001AD0F1EE10FAF0D490ED003A93ED004AD0ED13
S31502001AE0013AD3ED014AB4EEC43AD0ED027AF1EEF0
S31502001AF010FAD3ED026AF4EEE43A33FE046AF1EE2A
S31502001B0010FAF4EEE67A73FEA41AF1EE10FA90EDEC
S31502001B10031AD3ED030A54BFB0EE667AB0EE677AC3
S31502001B20B4EEE01A37EE467AF1EE10FAB5EEC07A66
S31502001B3054BFB0EE606AB0EE416AF1EE10FA36EECC
S31502001B40616A8ED4B5EEC06AF1EE10FA48BFB0EE05
S31502001B50626A27EE067AB5EE407AF1EE10FA90D175
S31502001B60F0EE621AA1E7BE4502D0D0453FF7EBAED2
S31502001B70D344DDE902030132502A7FF45DAE21E649
S31502001B804FF000080137774545F828307FF489AED3
S31502001B90C3E6B0EE677A25E7F0EE466A13E73FF44E
S31502001BA0C0AEE8E70CEE0022FDEEC07A17EE90CA50
S31502001BB0FDEEE07A70B517EE904A15460CF1010E6D
S31502001BC08E4501F1FF32A8BF96462CEAEC7C24EA48
S31502001BD0E47207EE902A07EE10CA0134AC4205F110
S31502001BE0FF36A8BF3446F8EEE77AB8EEC77A01FBAD
S31502001BF002F204FB01F10CEB0204724402EB420214
S31502001C008C448E440244D25C0EEB4E0E04EB44042A
S31502001C100CEB4C0C044484447044E15C06EE102A3E
S31502001C201CF80320C35C30EE477A70EEE70AF7EE43
S31502001C30005A00EE101A07EE902A06EE903A35EE9A
S31502001C40C75AF8EE666AB8EE400AB8EE466AF8EE89
S31502001C50677A26EE076A20EE050A26EE877A67EE8F
S31502001C60857A75EEE05A30EE060A77EE877A20EE2E
S31502001C70250A67EEA07A30EE270A70BD2DE9F04FED
S31502001C802DED028B87B0BDF84C40BDF8489007EEAB
S31502001C90104AF8EEC76A07EE101A07EE909AF8EEA7
S31502001CA0C78A07EE102AF8EEE77AB8EEC78A87EEF9
S31502001CB0A87AC6EE887AB4EE677AF1EE10FA48BFD1
S31502001CC0F0EE477A68EEA76A28EE277AA446BDEEBA
S31502001CD0C77AFDEEE66A17461C4616EE90BA6346CA
S31502001CE017EE102AA9EB0B0A9B1A149D0AEBDA7A55
S31502001CF003EBD3730E4680468DED007A4FEA6A0AED
S31502001D005B101DB1C5ED007AC5E901A30CFB09F212
S31502001D106FF00D01204602EB42026546019309F07F
S31502001D20A9F907EE90BAF8EEE77AC8EEA72ADDED32
S31502001D30007AF8EEE77A009888EE274A002840F300
S31502001D408C80019B0AEB4A02A218F6EE003A4FF08B
S31502001D50000C294603FB09FE059204E00CF1010C76
S31502001D606045CE4479D00CEB03028A42F6D2BBF12F
S31502001D70000FF3DD07EE90CAB8EEE73A33EE233AE8
S31502001D8023EE043A002433EE633AB0EE442A059A6F
S31502001D90CDE90003CDE902CE0EEB4E0515440491C2
S31502001DA004EB0A034B4547D207EE904AB8EEE74AE0
S31502001DB034EE234A24EE224A34EE634AF0EE430A14
S31502001DC000233A4631464046B0EE440AFFF7ECFE9F
S31502001DD00123F0EE404AF0EE430AB0EE440A3A46D8
S31502001DE031464046FFF7E0FEF0EE407AB0EE440A96
S31502001DF0B0EE674A02233A463146F0EE430A4046BF
S31502001E00FFF7D2FE34EE234A30EE230ABDEEC44A71
S31502001E1074EEA34A14EE103ABDEEC00AA3F1800294
S31502001E20FDEEE44A10EE103AA3F1800114EE903A68
S31502001E30803B29706A70AB700134A34505F1030536
S31502001E40AED1DDE902CEDDE900030CF1010C6045FD
S31502001E50B0EE424A0499CE4485D107B0BDEC028B5E
S31502001E60BDE8F08F70B51D4B9C68D3E90056236818
S31502001E703146284698471A4902460020FFF786F956
S31502001E80726818490020FFF781F90022E3691146BA
S31502001E902846984763682846984713490246002011
S31502001EA0FFF774F9114B1D689C6859682268284629
S31502001EB090470F4902460020FFF768F90022E369BE
S31502001EC0114628469847284663689847BDE87040F9
S31502001ED0024608490020FFF759B900BF902E0102B9
S31502001EE0901F0102AC1F0102CC1F0102182F010232
S31502001EF0E81F01020420010270B502460D46EFF307
S31502001F001081012383F31088144C23681BB91448EB
S31502001F1003754023037523680133236081F3108818
S31502001F20104B0B211E68304601F0B0FC2A460E21EA
S31502001F30304601F0ABFCEFF31082012383F31088E5
S31502001F40236813B12368013B236023681BB98020F1
S31502001F5003490B75087582F3108870BD6C34012233
S31502001F60000D4040502A010270B505460C462A462D
S31502001F70234611490020FFF709F9104B104E596804
S31502001F8072684968506805FB01F100FB04F40D4ACA
S31502001F90A2FB01019868A2FB0424C5690022186805
S31502001FA04909A847B3686409214630680022BDE89A
S31502001FB07040DB69184700BF20200102902E010203
S31502001FC0182F01021F85EB5110B50478012C00D0A1
S31502001FD010BD83689B06FBD5C068064B064A1C707B
S31502001FE0106008F097FE054B2146BDE810401868C0
S31502001FF005F05ABD23320122243201228C3F0122EE
S315020020000346024900201A78FFF7C0B844200102AD
S31502002010704700BF08B5FFF77FF9002008BD00BF73
S31502002020704700BF2DE9F843089E082E42DC0024C3
S315020020308146154608464FF0FF32214698464FF034
S31502002040FF37FFF7EDFF874274EB01012CD3D9F876
S315020020500030002E1861D9F800301D6214DDA8F197
S315020020600805A046F5E902012246FFF7D9FF874295
S3150200207078EB010112D304F11002D9F800300134D1
S31502002080A64243F83200EDD1D9F80020936803F056
S315020020900C0343F001039360BDE8F883A421084BC7
S315020020A0084A094804F088F99821084B054A064867
S315020020B004F082F99421064B024A034804F07CF9A3
S315020020C0DC2001029433010288200102C4200102AD
S315020020D060200102704700BF0268936803F00C0398
S315020020E043F00203936003685A685107C2F3800003
S315020020F012D45A68C2F30011D2060CD45A68C2F33B
S31502002100C010120606D45A68D20504D45868C0F321
S3150200211040107047084670470020704710B40024EC
S31502002120D0E90112121BB1FA81F118BF01228446CD
S31502002130490942EA4102006862F30704C4601F4B80
S31502002140DCF8001001E0013B02D04A681207FAD41B
S315020021504B68C3F3C0001B0709D4DCF804304A6A93
S31502002160B3FA83F3C2F340025B09934204D04FF001
S31502002170FF305DF8044B7047DCF808204B6A003AE2
S3150200218018BF012203F001039A42F0D1022245F25E
S315020021905354CA61DCF80020094BD463DCF80020F2
S315020021A01364DCF800205364DCF800209364DCF846
S315020021B00020D3645DF8044B704700BFA08601007F
S315020021C000001F0F08B5C0E9001283608B6A1B0F5F
S315020021D001D0002008BDFFF7A1FFB0FA80F0400948
S315020021E008BD00BF0068022A836803F00C0306D00C
S315020021F0A2F10102B2FA82F2520962F3C303022980
S3150200220006D0A1F10101B1FA81F1490961F3820314
S3150200221083600020704700BF10B50068836A0468B7
S315020022208B422AD04FEA136C4B405FFA83FE1B07A0
S315020022304FEA11611DD18CEA01000F288CBF0020E4
S315020022400120BEF1100F28BF00201CF0080F03D199
S3150200225011F0080F18BF002082EA0403B3F1805F71
S3150200226009D2C2F30752C4F30754A24288BF002020
S3150200227010BD0020E5E7002010BD0120ECE700BFFD
S3150200228000487047E433012200207047002070475F
S3150200229008B5012008F038FE08B10023037008BD16
S315020022A000E020BF0378002BFBD0013B0370002027
S315020022B0704700BF03780133037040BF00207047A8
S315020022C0704700BF704700BF437C012B0FD002232B
S315020022D010B503740446FFF7FFFE034683F00103BD
S315020022E05B00DBB2E06A6374FFF7E4FF10BD704780
S315020022F02DE9F843234E0446376889461546984623
S31502002300002F38D0204F3B686BB3DDE908234FF02E
S31502002310020C2563002549462046C4F8388084F815
S3150200232041C084F842C06563E563FFF74BFFF8B12D
S31502002330FFF7AEFFE062D8B1306825616561A5613D
S31502002340E56125626562A562FFF79EFF0F4B306865
S315020023501A681C60E260FFF799FF3868FFF7AAFF68
S315020023602846BDE8F883FFF793FF38600028CCD1F2
S315020023704FF0FF30F5E7FFF783FF30600028C1D149
S31502002380F6E700BFEC330122E8330122F0330122E3
S3150200239038B5037C0446012BD8B20ED002280ED0E3
S315020023A0002853D000234FF0FF3023616361A361FD
S315020023B0E36123626362A36238BD0029FCD0626ACC
S315020023C0002A15DD002502E00135954210DA94F85F
S315020023D042302B41DB07F7D5D4E9073252F82510F4
S315020023E053F8350000F0D0F9626A01359542EEDB0A
S315020023F04FF0FF324FF0FF33E06AFFF751FF00283C
S3150200240027DB2046A16AFFF75DFFE36B3BB1013B89
S31502002410E36323B9012220461146FFF7E3FE637CFC
S3150200242003F0FF0083B1637C022B20D02046FFF726
S3150200243075FE38B9E26B2046B2FA82F252091146AB
S31502002440FFF7D0FE4FF0FF300023AEE76FF001003A
S3150200245038BD01216174237C022BD2D14FF0FF32A9
S315020024604FF0FF33E06A6174FFF71AFFC9E72046AF
S31502002470FFF730FEDAE700BF2DE9F04782B0DDE96B
S315020024800A7C002900F0A980002B00F0B480002FFE
S3150200249000F0AA800446007C01EB020800F0FF056A
S315020024A000284BD10C98C4E90512C4E907372574F4
S315020024B0C4F824C0A062534D0868A84236D112F06F
S315020024C0030633D10D1DD4E90C1251EA020069D17B
S315020024D0A8450FD92B78022B10D0052B34D0012B0F
S315020024E024D1D5E901122046FFF796FEF0B10C354C
S315020024F0A845EFD8304602B0BDE8F0876B786F8802
S3150200250005F1040947EA034719F00F0A4FEA87075C
S315020025100CD1606A002830DDE2690346083A01E020
S31502002520013B20D052F8081F0907F9D00023236186
S315020025306361A361E36123626362A3624FF0FF36C4
S31502002540304602B0BDE8F0870435C1E7236A53F886
S315020025502A10E36953F83A0000F014F9606A0AF1A6
S31502002560010A824509DA94F8413043FA0AF3DB0795
S31502002570ECD40AF1010A8245F5DBE36B5A1CE263ED
S31502002580D3B101232046A16A2374FFF799FE636A39
S315020025903A46009349462046E3690437FFF742FD6F
S315020025A03D4495E7BCF1020F92DDBF68A06B8742FE
S315020025B0BCD8C3E904128BE72046FFF7AFFD40B94A
S315020025C0E26B2046B2FA82F252091146FFF70AFE80
S315020025D0D7E7E36B013BE363A8E740F282210A4BAC
S315020025E00A4A0B4803F0E8FE4FF42171094B074AE9
S315020025F0074803F0E1FE40F28321074B034A0448F1
S3150200260003F0DAFE434F503134210102B4330102A2
S3150200261000210102602101024C21010210B584B0A1
S31502002620069C0094079C0194089C02940446FFF7BA
S3150200263023FF002806DB0121204604B0BDE8104036
S31502002640FFF7A6BE4FF0FF3004B010BD70B50546C9
S3150200265082B00C46EFF31086012181F310882C4BD1
S315020026601A6822F480321A601B68962003F0AEFEC6
S3150200267086F310880023AA68A17B1068627BCDE9E5
S3150200268000211A462349FFF733FE00283CD1A368EE
S3150200269094F90C201B01002ADBB22FDB02F1604108
S315020026A001F5614181F800331B491C4B41F8225068
S315020026B002F5C65153F8210020F4803043F8210078
S315020026C053F82130BFF35F8F012153099B0002F0BB
S315020026D01F0203F1604303F5614301FA02F2C3F8F4
S315020026E080211A60002318466C6022680C49EA6051
S315020026F0626829606A612B6102B070BD094902F005
S315020027000F0001440B76CFE7032002B070BD00BF75
S315020027100030204000001440703401220060004066
S3150200272054454D52FCEC00E030B583B0EFF3038321
S31502002730124A103B5CB252F82450AB681868FFF795
S31502002740C3FDEB685BB12869B0B1036801936B699D
S315020027500360EB6898472B690BB1019A1A60084A25
S3150200276004F5C65352F8231021F4803142F823109F
S3150200277052F8233003B030BD01A8E8E770340122D5
S3150200278000600040704700BF704700BF43685A6947
S3150200279092F828301BB11B4B196359639963194B85
S315020027A0196841F4800119601968C1F380511968EA
S315020027B0C1F380511968C1F380511968C1F3805180
S315020027C01968C1F380511968C1F380511968C1F3C0
S315020027D080511968C1F380511968C1F38051196893
S315020027E0C1F38051916CC3F88410196841F001015C
S315020027F01960996841F00201996013689A6818682D
S315020028009368184700743440F0B58BB0EFF3038237
S3150200281000242A492A4B103A52B24E6853F82250E3
S315020028204B6CCDE900069806CDE902340BD5486813
S31502002830C0F3C100032805D049682248C1F3C1414B
S3150200284050F821400394EC681C4843F080231E494B
S3150200285043F00103049402F5C652436451F8223050
S3150200286023F4803341F8223051F822302F6917B30E
S31502002870BC463E46BCE80F00EE4605AC0FC4DCF88B
S3150200288000302360BEE80F000FC6DEF80030CCF839
S315020028900030AB68384698472B6953B19C460DF118
S315020028A0140EBEE80F00ACE80F00DEF80040CCF8CC
S315020028B000400BB0F0BD6F46EBE700BF007434403A
S315020028C0703401223074344000600040F8B5416033
S315020028D005460E464C69EFF31087012181F31088F5
S315020028E0794B9A6822F400329A609B68962003F02C
S315020028F06DFD87F31088754B9A6822F002029A6082
S31502002900626822F4800222F001021A6022691A62C7
S3150200291062695A62E26A9A652289DA6062891A6192
S31502002920A2895A61E2899A61228BDA62E2691A63A2
S31502002930226A5A63626A9A63226B1A662279196854
S31502002940C2F3400262F341011960626BC3F80023CD
S31502002950A26BC3F80423E26BC3F80823226CC3F804
S315020029600C23626DC3F82822A26DC3F82C22E26DF5
S31502002970C3F83022226EC3F83422626EC3F83822BC
S31502002980A26EC3F83C22E26EC3F84022226FC3F85D
S315020029904422626FC3F84822E2791968C2F3400200
S315020029A062F35961196062791968920962F38F318B
S315020029B01960E26CC3F89020226DC3F8A420E27974
S315020029C01968C2F3800262F39A6100221960616C8F
S315020029D0C3F88010E16F1964B4F8801099642A6113
S315020029E0F368AB603369EB6094F9792094F8783038
S315020029F0002A5ADB1B0102F16041DBB201F561419B
S31502002A0081F800333249334B41F8225002F5C65061
S31502002A1053F8206026F4803643F8206053F82030BD
S31502002A20BFF35F8F012053099B0002F01F0203F1DF
S31502002A30604303F5614300FA02F2C3F880211A608B
S31502002A4094F97B2094F87A30002A36DB1B0102F1D6
S31502002A506040DBB200F5614080F800331D4B41F85F
S31502002A60225002F5C65153F8210020F4803043F873
S31502002A70210053F82130BFF35F8F012153099B00D8
S31502002A8002F01F0203F1604303F5614301FA02F209
S31502002A90C3F880211A602368D3E901121868126804
S31502002AA0904708B90C4B2B60F8BD0C4902F00F0099
S31502002AB01B01DBB201440B76A4E709481B0102F0B5
S31502002AC00F06DBB28355C9E700302040007434405C
S31502002AD070340122006000404E495652FCEC00E080
S31502002AE014ED00E00120FFF78FBE00BF0220FFF7C2
S31502002AF08BBE00BFF0B5C46A85B005460F46944644
S31502002B006E46B4B194E80F0086E80F002B6A2046A1
S31502002B101B78A760236084F804C02B6BE360AB6A62
S31502002B209847EC6A1CB196E80F0084E80F0005B0DE
S31502002B30F0BD3446EAE700BF38B5EFF30383103B36
S31502002B40254A5BB203F5C65152F8210020F48030C3
S31502002B5042F8210052F82120204A52F82340236AE3
S31502002B601B69B3B1636903B138BD636A9D68A06826
S31502002B7025F4801545F4001518BB00219D60A36A53
S31502002B802161002BF0D02046BDE838408022FFF7B5
S31502002B90B1BF6269636A002AE8D0A278216902F0AD
S31502002BA00302022A11D00A781A71A278D4E9041310
S31502002BB002F003029B1A1144C4E90413002BD3D179
S31502002BC0D3E703F0FDFB636AD7E70A8822F4DC4207
S31502002BD092B25A60E9E700BF0060004070340122F9
S31502002BE010B582B0EFF30383103B1F4A5BB203F5C5
S31502002BF0C65152F8210020F4803042F8210052F8E2
S31502002C0021201A4A52F82340A27802F00303022B2B
S31502002C10636A0CBF19681978E3690CBFC1F308012E
S31502002C20C9B2019143B9A36AB3B10422204602B0E4
S31502002C30BDE81040FFF75EBF02F0030201A9A069DA
S31502002C4008F056FAD4E90621A37803F003031A44DE
S31502002C50C91AC4E9062109B102B010BDA36A002B44
S31502002C60FAD00122E2E700BF006000407034012280
S31502002C7010B5EFF303830F4A103B5CB252F82400FF
S31502002C80426A936823F4401323F010039360836A25
S31502002C901BB102220021FFF72DFF074A04F5C65396
S31502002CA052F8231021F4803142F8231052F82330CF
S31502002CB010BD00BF703401220060004038B5EFF34A
S31502002CC003831D4A103B5CB252F824008378456A9E
S31502002CD003F00303022B0CBF29682978AA6C08BFEC
S31502002CE0C1F30801C2F30073C2F3006C4FEA031387
S31502002CF043EA4C13C2F3C06243EAC20C18BFC9B21C
S31502002D00DB06624604D5AB6C1B0458BF4CF040028E
S31502002D10AB6E43F0C853AB66836A0BB1FFF7EAFEAC
S31502002D20064A04F5C65352F8231021F4803142F8BC
S31502002D30231052F8233038BD70340122006000405F
S31502002D4030B590F80AE0036903EB4E12D2F830214F
S31502002D50D40765D4C16800684A790D79CC880132F6
S31502002D60012DD2B208BF24024FEA820208BFA4B2E2
S31502002D7005F0030502F01C022A438569200401249A
S31502002D80897C4FEA4E1C090601F0F8510A4342F4C7
S31502002D90F07203EB0C01C1F83421C1F838012A693B
S31502002DA00EF11E0022F07042C1F83C21204A0EF1BB
S31502002DB01C0EC1F840211F4AC1F844211E4AC1F81F
S31502002DC048211E4AC1F84C211D4AC1F83021D1F8CA
S31502002DD030212243C1F8302104FA00F104FA0EF43C
S31502002DE003E0D3F89021224203D1D3F89021114275
S31502002DF0F7D09C44DCF8302122F00102CCF83021D5
S31502002E00D3F89021C240D00707D4D3F8902122FAF2
S31502002E100EF2D20707D4002030BDC3F89411FAE7A8
S31502002E2049F6424030BDC3F894414FF4966030BD36
S31502002E300000FFFFFF00080000F7FF0008F700F799
S31502002E40021F001F10B5036804699B699B681A7903
S31502002E50002A61D0B0F808C01B6803E0013A03F10A
S31502002E60280359D019886145F8D1817AC36004EBE9
S31502002E7081010A6DCCF3090C6FF30A024CEA020CCB
S31502002E80DA78920202F4806242EA0C020A65597901
S31502002E9093F802C0DA7D03294FEA81014CEA024225
S31502002EA001F00C0142EA010242F4700108BF0A462F
S31502002EB0817A4CEA02020131090162501A79B3F8A9
S31502002EC006C0012AB3F808E007D14FEA0C2C4FEAF4
S31502002ED00E2E1FFA8CFC1FFA8EFE997CDA7C1304E6
S31502002EE00A04817A02F4F812013142EA0C0204EB76
S31502002EF001114A60827A03F4F81343EA0E0304EBE3
S31502002F000212936103689B691B7B1BB9038913F445
S31502002F10007303D1002010BD052010BDBDE810408E
S31502002F20FFF70EBF2DE9F0418E690F46347805464C
S31502002F3004F5801404F51A64A402EFF31088012143
S31502002F4081F31088504A33785068103301FA03F33C
S31502002F5020EA030353605368962003F037FA88F396
S31502002F6010882F602C613B882B817378AB72337883
S31502002F70EB7273699A68D3E9000112689047AB7ADB
S31502002F80002B54D1236E23F03303236673783988DA
S31502002F90143344F82310AB7A002B6ED1337B1B0219
S31502002FA003F4F85323607268137890791B0441EA9C
S31502002FB0007103F470230B4391782846090501F446
S31502002FC080110B435178490501F400110B43D17866
S31502002FD0890501F480010B4311795279C90501F47F
S31502002FE0000112060B4302F0706213437278143228
S31502002FF044F82230FFF726FF244B0746A360E3601E
S31502003000AB7A002B34D1236E43F033032366204A76
S3150200301011688FB91F4B6B60012374783078984022
S31502003020A34083400B4313603846BDE8F081236E0C
S3150200303023F0CC032366A9E7032332785200934098
S315020030400B42F1D1EFF31084012181F310880E4A6D
S3150200305033785068103301FA03F30343536053681D
S31502003060962003F0B3F984F310883846BDE8F08160
S31502003070236E43F0CC032366C9E7337B1B0603F0BA
S31502003080F85323608FE700BF00302040800F010015
S31502003090F433012249505378084B00211A6A22F070
S315020030A001021A629A6842F001029A601A6922F0D3
S315020030B001021A610346084619607047006C3440E3
S315020030C030B53A4A91F80CC0946C394B6CF3000453
S315020030D094641C6A9A8C374D4FEA143E02F00F0C28
S315020030E0C4F303342B6844EA0C052D0712D592B2B9
S315020030F015074ED401221EF0080F02FA0CF251D027
S3150200310003240EF0070E04FA0EF402FB03F3B3FBDC
S31502003110F4F302E003FA0CF3E340274C234AA4FB40
S3150200312003439B0C1468013BDBB263F30704146090
S31502003130136943F001031361D369DC07FCD50B7BEA
S3150200314073B10B68194C5360D3680D7965F30403A8
S31502003150D360936823F001039360E369DB05FCD532
S315020031608A68124B1468154DC4F312045C625468E3
S315020031709C629468DC62D4681C6314695C63127D89
S315020031809A631A6A42F001021A62C0E900510020EB
S3150200319030BD4FF0030C02F007021EF0080F0CFAC6
S315020031A002F2ADD1012505FA04F4AEE7006C344013
S315020031B000E00140E834012283DE1B435049504DB2
S315020031C0034A0020D36943F00103D361704700BF6D
S315020031D000703440074B5A6F920309D5DA69002012
S315020031E022F00102DA619A6A42F001029A6270479B
S315020031F00120704700703440054A0020136FC3F364
S31502003200404301330B70536F43F4003353677047E7
S3150200321000703440094BD3F8842212F47F4F0AD04F
S31502003220D3F89422002042F00102C3F89422D3F884
S3150200323090320B6070470D20704700BF007034401B
S3150200324030B5046905468C4685B0ACB194E80F00EA
S315020032500DF1100E0EE90F009CE80F0084E80F0036
S315020032602046AB6898472C6924B104AB13E90F00DA
S3150200327084E80F0005B030BD0C46F1E7F8B5064606
S315020032800D464160EFF31084012181F31088A54BAE
S315020032909A6822F400329A609B68962003F096F8A8
S315020032A084F310882B68D3E90112186812689047D4
S315020032B0002840F016819C49CB6960F30003CB617C
S315020032C0CB6ADB07FCD44FF0100E6B684EF001E0C0
S315020032D00B61AB688B612B690B646B694B64D5E937
S315020032E00623C1E918232B46EA68C1F88022EA6A56
S315020032F08A672A6BC1F8882053F8344F8B4AC1F883
S31502003300984053F8044F42F8104B0FF007C00022C2
S31502003310A96F854BC3F80812E96FC3F88C123261A4
S31502003320D5F88030B360D5F88430F36095F9213052
S3150200333095F82020002BC0F2D580120103F16041DE
S31502003340D2B201F5614181F80023794A794942F8FE
S31502003350236003F5C65451F8247027F4803741F8E8
S31502003360247051F82410BFF35F8F012103F01F046C
S315020033705B099B0003F1604303F56143A140C3F877
S315020033808011196095F9233095F82210002B4FEA27
S315020033900111C9B2C0F2C08003F1604404F5614470
S315020033A084F80013634942F8236003F5C65451F8C2
S315020033B0247027F4803741F8247051F82410BFF3A3
S315020033C05F8F012103F01F045B099B0003F1604339
S315020033D003F56143A140C3F88011196095F92530C0
S315020033E095F82410002B4FEA0111C9B2C0F28E8063
S315020033F003F1604404F5614484F800134D4942F830
S31502003400236003F5C65451F8247027F4803741F837
S31502003410247051F82410BFF35F8F012103F01F04BB
S315020034205B099B0003F1604303F56143A140C3F8C6
S315020034308011196095F9273095F82610002B4FEA6E
S315020034400111C9B25CDB03F1604404F5614484F8FE
S315020034500013384942F8236003F5C65451F8247024
S3150200346027F4803741F8247051F82410BFF35F8F98
S31502003470012103F01F045B099B0003F1604303F57E
S315020034806143A140C3F88011196095F9291095F896
S31502003490283000292DDB1B0101F16044DBB204F563
S315020034A0614484F80033234B42F8216001F5C65289
S315020034B053F8224024F4803443F8224053F8223051
S315020034C0BFF35F8F01224B099B0001F01F0103F13D
S315020034D0604303F561438A40C3F880211A60164BA4
S315020034E03360F8BD1549120103F00F04D2B20A5532
S315020034F02BE7124C1B0101F00F05DBB26355D2E735
S315020035000F4C03F00F073C442176A2E70C4C03F064
S315020035100F073C44217671E7094C03F00F073C4440
S3150200352021763FE700302040007034400871344075
S3150200353070340122006000404349504D14ED00E012
S31502003540FCEC00E0012270B54368044693F92110B1
S31502003550344E480901F01F0102FA01F1203046F803
S315020035602010BFF34F8FBFF36F8F002593F9211001
S315020035702D4840F8215093F923104FEA511C01F0CF
S315020035801F0102FA01F10CF1200C46F82C10BFF3D0
S315020035904F8FBFF36F8F93F9231040F8215093F9A1
S315020035A025104FEA511C01F01F0102FA01F10CF13C
S315020035B0200C46F82C10BFF34F8FBFF36F8F93F991
S315020035C0251040F8215093F927104FEA511C01F0BB
S315020035D01F0102FA01F10CF1200C46F82C10BFF380
S315020035E04F8FBFF36F8F93F9271040F8215093F94D
S315020035F029104FEA511C01F01F018A400CF12001EB
S3150200360046F82120BFF34F8FBFF36F8F93F929201E
S3150200361040F822501B689A6818685368984700B9A0
S31502003620206070BD00E100E07034012230B585B043
S31502003630EFF303834FF47F440F4A103B5BB252F819
S3150200364023000E49ADF800400C6FC5680C4A03957D
S3150200365004F40035019403F5C6534D6752F823105E
S3150200366021F4803142F8231052F823306946FFF7DD
S31502003670E7FD05B030BD00BF703401220070344052
S31502003680006000402DE9F04184B0EFF30383214A44
S315020036902149146DD2F88070103BD2F8906027F061
S315020036A080705BB251F82350C2F884001B4926F0A1
S315020036B08070C2F8940003F5C65351F8232022F411
S315020036C0803241F8232051F823300123EA688DF82D
S315020036D00030E30703925FFA84F805D418F0020F6C
S315020036E00DD104B0BDE8F081002328466946019752
S315020036F08DF80130FFF7A4FD18F0020FF1D0012377
S315020037002846694601968DF80130FFF799FD04B007
S31502003710BDE8F08100703440703401220060004040
S3150200372010B584B0EFF303830221104A103B5BB25B
S3150200373052F823000E4C0F4A246DC4688DF800100F
S31502003740039403F5C65352F8231021F4803142F84C
S31502003750231052F82330FF22002369468DF80120F8
S315020037600193FFF76DFD04B010BD00BF7034012256
S31502003770007034400060004030B585B0EFF303833B
S315020037804FF603740F4A103B5BB252F823000E4900
S31502003790ADF80040D1F80042C5680C4A0395E5B27F
S315020037A0019403F5C653C1F8045252F8231021F4CA
S315020037B0803142F8231052F823306946FFF740FD64
S315020037C005B030BD70340122007034400060004004
S315020037D030B585B0EFF303834FF60474104A103BFD
S315020037E05BB252F823000F49ADF80040D1F884428B
S315020037F0C5680D4A039504F01005019403F5C653F6
S31502003800C1F8885252F8231021F4803142F823106D
S3150200381052F823306946FFF713FD05B030BD00BFED
S3150200382070340122007034400060004000220346DA
S3150200383010461A60704700BF10B40B0A064C1B01F3
S3150200384053FA81F154F821300020C3F340035DF8A6
S31502003850044B1370704700BF00084040090A490133
S3150200386001F1804101F580014B6800201380704709
S31502003870090A490123EA020C01F180411A4001F5C5
S31502003880800142EA0C4200208A6070470020012330
S315020038908242CAB203FA02F39AB24FEA034308BF5C
S315020038A01A460B0A5B0103F1804303F580039A6013
S315020038B0704700BF10B4090A490101F1804101F5C0
S315020038C080010C6802EA030C4CEA040C62EA030269
S315020038D002EA0C020A6000205DF8044B704700BF42
S315020038E0090A490101F1804101F580014B68002076
S315020038F0C3F30F4313807047012310B44FEA112C10
S315020039004FEA4C1C0CF1804C0CF5800CDCF80440A0
S31502003910C9B28B4099B203EA14435B1AB3FA83F332
S315020039205B0900205DF8044B13707047090A4901D0
S3150200393023EA020C01F180411A4001F5800142EAB4
S315020039400C420020CA607047012010B40B0A5B01CA
S3150200395003F1804303F58003C9B2DC6800FA01F182
S31502003960012A4FEA01400DBF84438C4304430C43B2
S31502003970DC6000205DF8044B704700BF2DE9F84F6C
S315020039800388DBB14FF0000A80464FF00109DFF8E9
S31502003990D4B00024314D4FEACA07D8F8043035F8BE
S315020039A0022BD919898891420AD00134032CF4D109
S315020039B0B8F800300AF1010A5345EAD8BDE8F88F93
S315020039C0DB5909FA04F603F0B853B3F1807F244BAE
S315020039D0F6B293F84C2C12D0324230D104F12002C6
S315020039E01BF81230DB09E0D01BF81230012123F05C
S315020039F08003C8200BF8123002F0E8FCD5E7324209
S31502003A0010D004F120021BF81230DB09CDD11BF8CD
S31502003A101230012143F08003C8200BF8123002F065
S31502003A20D5FCC2E7012002F07DFD0D4B012093F883
S31502003A304C2C324383F84C2C02F044FDE1E7012082
S31502003A4002F070FD064B012093F84C2C22EA060286
S31502003A5083F84C2C02F036FDC0E700BFE8330102C2
S31502003A6000E0014000202040F8B50646FFF786FF39
S31502003A70EFF31082012383F31088234F3B681BB9AF
S31502003A80402022490B7508753B6801333B6082F37F
S31502003A901088338800211BB31D4D08E01B01134417
S31502003AA045F82340328801318BB29A4218D973689D
S31502003AB053F8314003EBC1029288E0034FEA122326
S31502003AC0D2B2EBD502EB031055F820E024F4803C89
S31502003AD02EF4803E45F820E01B0145F820C0DEE7C3
S31502003AE0EFF31082012383F310883B6813B13B681E
S31502003AF0013B3B603B681BB9802004490B75087586
S31502003B0082F31088F8BD00BF6C340122000D4040DC
S31502003B100008404008B5034B03600846FFF7A4FFC0
S31502003B20002008BD54524F5008B50846FFF79CFFC7
S31502003B30002008BD70B5012686B001AB03A80C466D
S31502003B4015460493ADF80C60ADF808100192FFF724
S31502003B5015FFEFF3108186F310881D4B1A681AB908
S31502003B601C480275402202751A6801321A6081F3F6
S31502003B701088E9034FEA1422E4B219D41101164857
S31502003B800A1940F82250EFF31082012181F31088BE
S31502003B90196811B11968013919601B681BB98020AF
S31502003BA00C490B75087582F31088002006B070BDAB
S31502003BB00948110104EB021250F8226026F48036FD
S31502003BC040F8226025F4803640F82260D7E700BF2D
S31502003BD06C340122000D404000084040034600209C
S31502003BE059601A72704700BF30B5836B83B00446C2
S31502003BF00A466D46A3B193E8030085E80300E16B2C
S31502003C001A7119601846636B9847A36B1BB195E846
S31502003C10030083E80300002384F82B3003B030BD91
S31502003C202B46ECE730B5454B83B01B6A016901931D
S31502003C30019B03F00F230193019A019D0B7C90F8DF
S31502003C402C409CB9C2F30322DBB2A2EB156293406D
S31502003C509B0804D1082003B030BD013BFAD04A7854
S31502003C60C2F3C014D209F8D1CC710169002390F8CD
S31502003C7026408569026880F82B30C56180F82D30B0
S31502003C8080F8274080F82E3080F8283080F82F30D0
S31502003C90036280F83030546A227894F801E0012AEF
S31502003CA014BF4FF0040C4FF0050C6279120142EA80
S31502003CB04E0294F806E042EACE124CEA0202D2B270
S31502003CC0CA7001690A7942F010020A7101690A7919
S31502003CD063F3C3020A7101690A7963F304120A7172
S31502003CE00269E179137961F3C71313710269537992
S31502003CF043F001035371036893F90F30002B07DB7E
S31502003D00012203F01F040E495B09A24041F8232059
S31502003D10BF210269537A03F0F30353720369D9711F
S31502003D2090F82C302BB1002380F82C30002003B001
S31502003D3030BD022203695A70F8E700BF00E0014075
S31502003D4000E100E090F808C0C0E90512BCF1010FDD
S31502003D5080F82A3008D10022436880F826C05B002A
S31502003D6080F8243080F82520002380F82930FFF7D8
S31502003D7059BF00BF90F808C0C0E90512BCF1010F97
S31502003D8080F82A300AD10022436880F826C05B00F8
S31502003D9043F0010380F8243080F82520012380F8BF
S31502003DA02930FFF73FBF00BF70B4002440220369E9
S31502003DB01C7003691A70026913785B06FCD5C0236E
S31502003DC01370036802695B6A804D1B794FF0000C21
S31502003DD043F0E0031374036802695B6AB324DB7879
S31502003DE043F0E0035374036802695B6A9B781B0124
S31502003DF003F0700343F008039370036802695B6A79
S31502003E001E78012E5E7814BF0423052343EA460377
S31502003E10DBB2D37003685B68AB4214BF7722F7222A
S31502003E2003695A71036983F806C00369DC7191F963
S31502003E3011204B7B6245C0F2AA801B0102F160444D
S31502003E40DBB204F5614484F80033614C614B44F8FB
S31502003E50220002F5C65553F8256026F4803643F84B
S31502003E60256053F82530BFF35F8F012553099B0068
S31502003E7002F01F0203F1604303F5614305FA02F201
S31502003E80C3F880211A6091F90F204B7B002AC0F2F9
S31502003E9095801B0102F16045DBB205F5614585F8A7
S31502003EA000334C4B44F8220002F5C65553F8256000
S31502003EB026F4803643F8256053F82530BFF35F8F2A
S31502003EC0012553099B0002F01F0203F1604303F52B
S31502003ED0614305FA02F2C3F880211A6091F91020B3
S31502003EE04B7B002A63DB1B0102F16045DBB205F561
S31502003EF0614585F80033374B44F8220002F5C65572
S31502003F0053F8256026F4803643F8256053F82530A9
S31502003F10BFF35F8F012553099B0002F01F0203F1D5
S31502003F20604303F5614305FA02F2C3F880211A6081
S31502003F3091F90E204B7B002A31DB1B0102F1604115
S31502003F40DBB201F5614181F80033224B44F82200CD
S31502003F5002F5C65153F8214024F4803443F8214037
S31502003F6053F82130BFF35F8F012153099B0002F002
S31502003F701F0203F1604303F5614301FA02F2C3F83B
S31502003F8080211A609F2203691A7070BC7047124C16
S31502003F9002F00F051B01DBB22C44237655E70E49CE
S31502003FA002F00F051B01DBB229440B76CDE70B4D60
S31502003FB01B0102F00F06DBB2AB559CE7074D1B0156
S31502003FC002F00F06DBB2AB556BE700BF40420F00B3
S31502003FD07034012200600040FCEC00E014ED00E0C9
S31502003FE0F8B500250A781C4B016013441B020361D5
S31502003FF08B680E4643600B7B04460372CB694363B0
S315020040000B6A80F82950C36380F82A50856380F8CA
S315020040102B50C0E90555C0E9075580F82C50EFF33F
S315020040201087012181F310880C4A33785068C3F156
S31502004030090301FA03F320EA030353605368962047
S3150200404002F0C4F987F3108820463146FFF7ACFE2A
S31502004050034B2846E360F8BDE025400000302040CF
S315020040604349495210B582B0EFF30383103B5F4ACE
S315020040705BB203F5C65352F8231021F4803142F89D
S31502004080231052F82330EFF30383594A103B5BB2F5
S3150200409052F8234094F82D305BBBA369022B22D938
S315020040A0E369012B0ED12269137943F010031371D0
S315020040B02269137943F0080313712269137923F0F5
S315020040C01003137123685B6ADB79002B3ED1012250
S315020040D02369DB7CDBB28DF807309DF8073084F864
S315020040E02D2002B010BD2269137943F040031371EB
S315020040F0D6E7E369002BF4D02268526AD279FAB97C
S31502004100032B17D0022B26D0012B34D02269236A27
S31502004110D17C6269D154D4E907320132013BC4E948
S315020041200732002BDDD121690A7963F386120A71FF
S3150200413002B010BD2269137943F040031371E5E71B
S3150200414005212046FFF750FDE369D9E70521204600
S31502004150FFF74AFDBBE72269137943F01003137197
S315020041602269137943F0080313712269137923F044
S3150200417010031371CAE794F82A2072B322681D4805
S3150200418092F90F20510902F01F0203FA02F22031BE
S3150200419040F82120BFF34F8FBFF36F8F04202169B0
S315020041A0CA7942F08002CA7121690A7942F0100284
S315020041B00A7121690A7922F008020A7121690A79CB
S315020041C022F010020A712269507021694A7922F09E
S315020041D001024A7184F82C3098E708212269537A41
S315020041E003F0F7035372236959708FE700600040AA
S315020041F07034012200E100E010B5EFF30383103BB7
S31502004200434A5BB203F5C65352F8231021F48031B8
S3150200421042F8231052F82330EFF303833D4A103B52
S315020042205BB252F8234094F82730002B40D194F821
S315020042302930002B3BD123685B6ADB792BB194F8DA
S315020042402B3013B9236A002B5CD1E3692169002B59
S3150200425041D1CB79C02223F08003CB71216901E0E1
S31502004260013A02D0CB79DB09FAD12368284A93F9BD
S31502004270103003F5C65352F8231021F4803142F868
S31502004280231052F82330236893F91030002B09DBF0
S3150200429001215A09204803F01F03603201FA03F391
S315020042A040F822302269D37943F04003D37110BD1E
S315020042B094F82630032B1CD094F8242023699A7490
S315020042C094F8282094F827300132013B84F82820FC
S315020042D084F8273010BD236A6269D35C8B74D4E9F3
S315020042E007320132013BC4E90732002BDFD12169D3
S315020042F0AFE794F82830022BDED194F83030002B49
S31502004300DAD110BD05212046FFF76EFC9DE700BFFE
S31502004310006000407034012200E100E038B5EFF39E
S315020043200383344A103B5BB252F8234023685B6A2C
S31502004330DB79002B4BD194F829301BB194F8273046
S31502004340012B52D0E369E3B12169C023CA7922F075
S315020043504002CA71216901E0013B02D0CA795206C4
S31502004360FAD4EFF30383103B234A5BB203F5C65339
S3150200437052F8231021F4803142F8231052F82330E8
S3150200438038BD94F82A203AB3012022681B4D92F9CF
S315020043900F20510902F01F02203100FA02F245F8FD
S315020043A02120BFF34F8FBFF36F8F4FF0040C2169AB
S315020043B0CA7942F08002CA71226982F801C0216973
S315020043C04A7963F300024A7184F82C00BCE705219E
S315020043D02046FFF709FCAEE708212269537A03F06B
S315020043E0F703537223695970AEE794F83030002B05
S315020043F0AAD0A7E7703401220060004000E100E085
S3150200440038B5EFF303834F4A103B5BB252F82300F1
S315020044100269537A517ADC0601F0E00151725FFAC1
S3150200442083FC03F003022CD50369597849064ED45E
S315020044300024012580F82B50DC710168FFF7B4FCDB
S31502004440B32290F82630816980F82830036980F813
S315020044502C400162C46180F82A402946DA71FFF7CE
S31502004460C3FBEFF30383103B374A5BB203F5C65334
S3150200447052F8231021F4803142F8231052F82330E7
S3150200448038BD002A5CD11CF0080F11D0C369002B7D
S3150200449045D190F82B30002B41D1B32290F8291048
S315020044A00369C1F10301C9B2DA71FFF79DFBD8E7CF
S315020044B090F82C200CF0040342B3002BD1D0C36930
S315020044C0002B3BD190F82B30002B37D1E5E7002AA1
S315020044D0AED15A78C2F380115206D4D5082280F89A
S315020044E02B105A70036801695A6A947913785279C3
S315020044F043EAC41343EA021343F00203DBB2CB706E
S315020045000269537943F001035371AAE7002BA8D03D
S3150200451003685B6ADB79002BA3D00421C5E700237D
S31502004520B32190F826508469026980F82C3080F80D
S3150200453028500462C36180F82A30D1710121B4E7A0
S31502004540036975E77034012200600040034670B4C7
S31502004550002691F902001D4C820002F18042187178
S3150200456002F54042D2F80053C2F800638A689A60A4
S31502004570CA68DA600A7810095A7102EB8002D2B26E
S31502004580A6540E79C87840EA06104E7940EAC6105B
S31502004590C0B2A05493F9042002F5C65244F8225040
S315020045A093F90420002A0BDB4978094C090102F130
S315020045B06040C9B200F5614080F8001344F8223029
S315020045C0044A00201A6070BC704700BF00600040B9
S315020045D0703401225543490090F904200E4B02F52E
S315020045E0C65153F8210020F4803043F8210053F8D5
S315020045F02130BFF35F8F012153099B0002F01F0296
S3150200460003F1604303F5614301FA02F2C3F8802124
S315020046101A600020704700BF00600040012110B4FC
S3150200462090F90430084C5A0903F01F03994002F12D
S31502004630200344F82310BFF34F8FBFF36F8F002080
S315020046405DF8044B704700BF00E100E0034600201E
S31502004650C3E90212704700BF90F904200346002AFC
S3150200466019DB012010B451090C4C02F01F02203153
S3150200467000FA02F244F82120BFF34F8FBFF36F8F87
S315020046800020074A93F9041042F82100002018601E
S315020046905DF8044B704700201860704700E100E0A7
S315020046A07034012210B582B0EFF303841B4B103C29
S315020046B064B253F824101A4A4879030900EB8303BB
S315020046C0DBB2D35C03F00303032B13D004F5C65409
S315020046D052F8243023F4803342F8243052F824303E
S315020046E08B682BB14879CA68CDE90020684698479D
S315020046F002B010BD8B6823B1CA68CDE900206846B6
S315020047009847074B04F5C65453F8242022F4803206
S3150200471043F8242053F8243002B010BD703401222D
S315020047200060004003460020D3E9022393607047ED
S3150200473003460020D3E90223536070470346002054
S31502004740D3E90223D3607047034670B45A689E6861
S31502004750D26900209168D46841F0004551687561BC
S315020047609D6844F00044AC619C6841F000412161BF
S31502004770146999684C629B6852699A6270BC704768
S3150200478003464FF00041002210B49C681046216196
S315020047909C6861619C68A16199684A629B689A6299
S315020047A05DF8044B704700BF83684A1E9A664368E9
S315020047B01B782BB98368490801395965836899655D
S315020047C08368D96AC90707D44FF4AA015A6683686F
S315020047D01964D0E90232DA6000207047032A83683E
S315020047E009D0042A08BF03221232013903EB8203DD
S315020047F00020596070470422F6E700BF03469A6814
S315020048000020D26AC2F300020A719B689B6C0B609D
S31502004810704700BF84460020CCE90632CCF814105B
S31502004820704700BF30B48C6E01342AB1944203D96A
S3150200483030BC013A1A607047029D496B0078ED0759
S3150200484054BF01F01F01C1F30441032808D9090925
S3150200485081F001016AB9A1B930BC02225A607047DF
S3150200486001F00C01A1F10401B1FA81F14909002A12
S31502004870F1D0944201D80029EED130BC03225A600D
S315020048807047002CE8D0F8E72DE9F04F4FF0FF3AD9
S315020048904FF0000B866885B0009202AB0746884649
S315020048A01446406802F003090A463146CDE902ABD6
S315020048B0FFF7B8FF039B356B93B914F0080F14BFCB
S315020048C004220222A107029820D502F1120106EB68
S315020048D081014860B968133201EB82014860BE6803
S315020048E062061BD5326CB9F1010F42F480023264C2
S315020048F027D025F44035BE6845EA0345B9F1000FD5
S3150200490016D10020356305B0BDE8F08F4A44123255
S3150200491006EB820250606206BE68E3D4B9F1010F6B
S3150200492023D025F44035022C45EA0345E6D173B976
S3150200493025F0407545EA03650020356305B0BDE8FC
S31502004940F08F25F04075BE6845EA0365F4E7012459
S31502004950786802AB424631460094FFF763FF039B39
S3150200496025F0407545EA0365E6E7022CE0D1DEE76D
S3150200497030B582681E4D526E1E4B01328A608268C5
S315020049801B68D06A2C6AAA8C04F00F0502F00F0C81
S3150200499045EA0C0E1EF0080FC0F3C35013D092B2B4
S315020049A012F0080F18D1012214F0080F02FA0CF2C5
S315020049B01BD0032504F0070405FA04F402FB03F3F3
S315020049C0B3FBF4F302E003FA0CF3EB400122C3401B
S315020049D04B6000200A7030BD4FF0030C02F0070254
S315020049E014F0080F0CFA02F2E3D10124AC40E5E719
S315020049F000E00140E834012230B44268034692F9ED
S31502004A001210D269002911DB01244F4D480901F029
S31502004A101F0C203004FA0CF445F82040BFF34F8FE8
S31502004A20BFF36F8F0024494840F8214092F92810BD
S31502004A30002911DB0124444D480901F01F0C2030E6
S31502004A4004FA0CF445F82040BFF34F8FBFF36F8F83
S31502004A5000243E4840F8214092F92910002911DB32
S31502004A600124394D480901F01F0C203004FA0CF4D8
S31502004A7045F82040BFF34F8FBFF36F8F00243348B2
S31502004A8040F8214092F92A10002911DB01242E4D0B
S31502004A90480901F01F0C203004FA0CF445F82040B6
S31502004AA0BFF34F8FBFF36F8F0024284840F8214091
S31502004AB092F92B10002911DB0124234D480901F03C
S31502004AC01F0C203004FA0CF445F82040BFF34F8F38
S31502004AD0BFF36F8F00241D4840F8214092F92C1035
S31502004AE0002911DB0124184D480901F01F0C203062
S31502004AF004FA0CF445F82040BFF34F8FBFF36F8FD3
S31502004B000024124840F8214092F92D20002A11DB98
S31502004B1001200D4C510902F01F0C203100FA0CF055
S31502004B2044F82100BFF34F8FBFF36F8F0020074970
S31502004B3041F822000020D3E90221186091609B68A7
S31502004B40586330BC704700BF00E100E070340122B8
S31502004B504FF0010C2DE9F0430B7C00250CFA03F310
S31502004B60C360C3F30D03B3FA83F35B0941600374B5
S31502004B700B7CAC4AAC4F1A44120282604B690E4659
S31502004B8043618B690446C0E9065385B0CD69C7F80F
S31502004B9010CFEFF310878CF31088097CA34B0A1F02
S31502004BA0052A83BF4FF00042CA40D2436FF000622B
S31502004BB01B6913409D4A136113690121962001F076
S31502004BC005FC87F31088E36819070DD0EFF310810F
S31502004BD0012383F31088964AE06853889BB223EA3E
S31502004BE00003538081F310884FF425400022A36806
S31502004BF04FF000411860A368DA62A368DA63A3681B
S31502004C009A64337A3078DB05032843F4803008BF90
S31502004C100346A7687068FB62A36801381961A36836
S31502004C205961A3689961A1684A62A1688A62A1680A
S31502004C30AB69CB61A168EB690B62A1688866A16862
S31502004C4048664FF0FF300021CDE9020130782F6D22
S31502004C50002840F0F28101204FF0030E7368D4F869
S31502004C6008805B08013B0293C8F85430A26893653A
S31502004C703278032A03D9A268D365A26813662B6D1C
S31502004C80D3B92B78A3B133786A78022B4FEA821C08
S31502004C904FEA021100F00482032B03D0002A0CBF54
S31502004CA0062309233B4343EA0C030B4343F4807771
S31502004CB0AB78002B40F0DC8100236268D16991F861
S31502004CC0482001F1300CDA40D2070ED5032B5CF8EE
S31502004CD0232016D0042B21D002F1FF38A26803F15B
S31502004CE0120902EB8902C2F804800133062B1DD099
S31502004CF091F84820DA40D207F7D5032B5CF8232037
S31502004D00E8D1A368013ADA6591F84820D30640F162
S31502004D10A9810423042BDCF81020DDD1A368013A13
S31502004D209A6591F848309B0600F19E810123327CF8
S31502004D309340C3F30D0313B10022A3685A64002300
S31502004D40A2689363A268C2F888302B6D3BB995F8C6
S31502004D50213095F820205B0743EA42331F4395F83A
S31502004D604830002B14BF4FF4A0024FF4AA02A368E6
S31502004D701A643378012B04D10023A268D364A26893
S31502004D801365A3685F63A26895F85410D36A43EA71
S31502004D90011395F8551043EA4113D362A368C3F889
S31502004DA030E0A3681863D4E90232DA6096F9123069
S31502004DB0002B26DB727C03F1604112011D48D2B240
S31502004DC001F5614181F800231B4A40F8234003F5AF
S31502004DD0C65152F8210020F4803042F8210052F8E0
S31502004DE02120BFF35F8F01215A09920003F01F03AE
S31502004DF002F1604202F5614201FA03F3C2F8803120
S31502004E00136095F92830002B35DB95F8222003F143
S31502004E10604112010748D2B201F5614181F80023CF
S31502004E200CE000BF2032400000303240003020400B
S31502004E300040324070340122006000409A4A40F835
S31502004E40234003F5C65152F8210020F4803042F87F
S31502004E50210052F82120BFF35F8F01215A099200E7
S31502004E6003F01F0302F1604202F5614201FA03F305
S31502004E70C2F88031136095F92930002B27DB95F8AB
S31502004E80232003F1604112018848D2B201F5614143
S31502004E9081F80023844A40F8234003F5C65152F8AC
S31502004EA0210020F4803042F8210052F82120BFF37D
S31502004EB05F8F01215A09920003F01F0302F160423B
S31502004EC002F5614201FA03F3C2F88031136095F9E3
S31502004ED02A30002B27DB95F8242003F160411201CA
S31502004EE07248D2B201F5614181F800236E4A40F858
S31502004EF0234003F5C65152F8210020F4803042F8CF
S31502004F00210052F82120BFF35F8F01215A09920036
S31502004F1003F01F0302F1604202F5614201FA03F354
S31502004F20C2F88031136095F92B30002B27DB95F8F8
S31502004F30252003F1604112015C48D2B201F56141BC
S31502004F4081F80023584A40F8234003F5C65152F827
S31502004F50210020F4803042F8210052F82120BFF3CC
S31502004F605F8F01215A09920003F01F0302F160428A
S31502004F7002F5614201FA03F3C2F88031136095F932
S31502004F802C30002B27DB95F8262003F16041120115
S31502004F904648D2B201F5614181F80023424A40F8FF
S31502004FA0234003F5C65152F8210020F4803042F81E
S31502004FB0210052F82120BFF35F8F01215A09920086
S31502004FC003F01F0302F1604202F5614201FA03F3A4
S31502004FD0C2F88031136095F92D30002B27DB95F846
S31502004FE0272003F16040314D12012F49D2B200F55C
S31502004FF0614080F8002303F5C65245F8234051F874
S31502005000220020F4803041F8220051F82220BFF31A
S315020050105F8F01215A09920003F01F0302F16042D9
S3150200502002F5614201FA03F3C2F8803113600020EF
S315020050301F4B236005B0BDE8F0830128D4F8088031
S3150200504029D00092F268606802AB4146FFF7EAFB9C
S31502005050DDE90232100440EA026040F0030E40F03D
S31502005060010001E605232EE60523DCF8142033E6CB
S31502005070E97832780B01022A43EA811312D0032A15
S3150200508003D000290CBF06220922134347EA034331
S3150200509043F0807710E64FF0030E4FF0FF33E3E55F
S315020050A00923FFE50922F0E700600040703401227F
S315020050B05450470001464FF0020C094B00201A6873
S315020050C042F480721A601A6842F001021A60D3F83A
S315020050D0402442F00102C3F8402481F800C0704720
S315020050E000303440F0B502F11103144D1B02E858AA
S315020050F0C60720D412480468C4F30020E4051AD473
S31502005100002915BF4FF0030E4FF0010E01270027AD
S3150200511041F20C1C05EB022202F5895426686EF355
S3150200512001062660EC18676042F80C10EA5842F055
S315020051300102EA50F0BD40F2EE30F0BD00203440EC
S31502005140003034402DE9F04F9246AC4C037B0268A6
S3150200515034F81360876885B0002A00F0EC8041F2CB
S315020051601C15A74A4FEA0A2CD25CA64B12076344C7
S315020051705A5190F80CE0B1F9003034F81EB0A24C46
S315020051808568A4881A469C42039580F29C809E4AB2
S31502005190837BB2F900200468B1F902E00192002B88
S315020051A040F0D880984D1A46B5F806900293F1451C
S315020051B0C0F2B480BEF1000FB0F80680C0F2D28011
S315020051C0A9EB0E09C1451FFA89F9B8BFC84641F2D3
S315020051D00C1907FB06F68B4FF608674447F8094099
S315020051E0447B002C847B56EA06B6002C00F09C8099
S315020051F041F210140026B0F810B03E51048A08FBA2
S3150200520004F4019841F228191044024641F230187A
S3150200521041F2181541F2241741F22C167B489B09DC
S315020052200BF1FF3B013B9BB200EA0B4B4BEA030B34
S31502005230029B00EA02421A43724BC4F30A04634415
S3150200524043F805B043F8092043F808206E4AB2F93C
S315020052500220724400EA02402043D85198510A7A49
S31502005260002A5FD0012A41F234104B7A14BF4FF460
S315020052707F04002441F2381141F20306614A4FEAE3
S315020052800343624418BF43F080731350604B54507B
S315020052901B68604A023342F82A30012141F250105B
S315020052A00024584A0AF11103944402EB03225A4B92
S315020052B00CF589552E6051604CF8004019705970F2
S315020052C005B0BDE8F08F002BB0F804E05ADBE41A13
S315020052D07445A4B2B8BFA6464B4BCEF30A05B3F942
S315020052E00030046801930BFB0EF30295DB0890F87D
S315020052F00E80B1F902E0B8F1000F03D0B0F80680D3
S3150200530008FB03F39D06404D18BF23F03F03B5F893
S31502005310069018BF4033F145BFF64CAF4FF0000E72
S31502005320F04654E70326B8E741F210103604C346A6
S3150200533044463E5065E70120324B0AF1110403EB65
S315020053400A2101F5895103EB042308605A6005B06E
S31502005350BDE8F08F0023B0F806801A46029308FBD8
S3150200536003F3CFE7F044B8F1000FD7DD039D1FFA30
S3150200537088F80BFB05F94FEAD9090EFB19444FF0E1
S31502005380000E24E703EB0E04002C7FF700AFBBF1FF
S31502005390070F20D84FF0010842461B4D5B42B5F974
S315020053A00050954201951EDAB3FBF8F818FB02F895
S315020053B00022AEEB080E1FFA8EF403FB0BFE0BFB6C
S315020053C004F3C4F30A0402940468DB0804EBEE0453
S315020053D024F03F048BE740224FEADB08B2FBF8F2E7
S315020053E0904612B2D9E7B3FBF8F208FB123292B238
S315020053F014445242A4B212B2DFE700BF783401026B
S315020054008834010200203440083401220000FF07DC
S31502005410F83301220034012234000022F8B50023B9
S3150200542005460C460370EFF31086012181F31088BE
S31502005430C14B9A6822F010029A609B68962000F08F
S31502005440C5FF86F31088BD490B6843F480330B60B1
S31502005450D4F8842094F83C005379A0F10300127921
S31502005460B0FA80F0B2FA82F2400903F03F03520921
S3150200547043EA003343EA022343F04003C1F85034BF
S3150200548094F84020D4F884300AB14FF4BC72C1F8C3
S31502005490E4230022A94EC6F8042493F9000093F9E6
S315020054A00110471C93F9022040F07081481C40F01D
S315020054B05781531C40F01C814FF0011C628E218DD6
S315020054C09F4B9E4FC1F30A0103EA02420A437A60E6
S315020054D0C7F808C0A18DB4F82AC00131CCF30A0C72
S315020054E003EA014141EA0C013961E18E954E01312F
S315020054F003EA0143A18E0022C1F30A010B43FB60BA
